{
    "contractName": "Kittycontract",
    "abi": [
        {
            "anonymous": false,
            "inputs": [
                {
                    "indexed": true,
                    "internalType": "address",
                    "name": "owner",
                    "type": "address"
                },
                {
                    "indexed": true,
                    "internalType": "address",
                    "name": "approved",
                    "type": "address"
                },
                {
                    "indexed": true,
                    "internalType": "uint256",
                    "name": "tokenId",
                    "type": "uint256"
                }
            ],
            "name": "Approval",
            "type": "event"
        },
        {
            "anonymous": false,
            "inputs": [
                {
                    "indexed": true,
                    "internalType": "address",
                    "name": "owner",
                    "type": "address"
                },
                {
                    "indexed": true,
                    "internalType": "address",
                    "name": "operator",
                    "type": "address"
                },
                {
                    "indexed": false,
                    "internalType": "bool",
                    "name": "approved",
                    "type": "bool"
                }
            ],
            "name": "ApprovalForAll",
            "type": "event"
        },
        {
            "anonymous": false,
            "inputs": [
                {
                    "indexed": false,
                    "internalType": "address",
                    "name": "owner",
                    "type": "address"
                },
                {
                    "indexed": false,
                    "internalType": "uint256",
                    "name": "kittenId",
                    "type": "uint256"
                },
                {
                    "indexed": false,
                    "internalType": "uint256",
                    "name": "mumId",
                    "type": "uint256"
                },
                {
                    "indexed": false,
                    "internalType": "uint256",
                    "name": "dadId",
                    "type": "uint256"
                },
                {
                    "indexed": false,
                    "internalType": "uint256",
                    "name": "genes",
                    "type": "uint256"
                }
            ],
            "name": "Birth",
            "type": "event"
        },
        {
            "anonymous": false,
            "inputs": [
                {
                    "indexed": true,
                    "internalType": "address",
                    "name": "from",
                    "type": "address"
                },
                {
                    "indexed": true,
                    "internalType": "address",
                    "name": "to",
                    "type": "address"
                },
                {
                    "indexed": true,
                    "internalType": "uint256",
                    "name": "tokenId",
                    "type": "uint256"
                }
            ],
            "name": "Transfer",
            "type": "event"
        },
        {
            "constant": true,
            "inputs": [],
            "name": "CREATION_LIMIT_GEN0",
            "outputs": [
                {
                    "internalType": "uint256",
                    "name": "",
                    "type": "uint256"
                }
            ],
            "payable": false,
            "stateMutability": "view",
            "type": "function"
        },
        {
            "constant": true,
            "inputs": [
                {
                    "internalType": "uint256",
                    "name": "_dadDna",
                    "type": "uint256"
                },
                {
                    "internalType": "uint256",
                    "name": "_mumDna",
                    "type": "uint256"
                }
            ],
            "name": "_mixDna",
            "outputs": [
                {
                    "internalType": "uint256",
                    "name": "",
                    "type": "uint256"
                }
            ],
            "payable": false,
            "stateMutability": "pure",
            "type": "function"
        },
        {
            "constant": false,
            "inputs": [
                {
                    "internalType": "address",
                    "name": "_to",
                    "type": "address"
                },
                {
                    "internalType": "uint256",
                    "name": "_tokenId",
                    "type": "uint256"
                }
            ],
            "name": "approve",
            "outputs": [],
            "payable": false,
            "stateMutability": "nonpayable",
            "type": "function"
        },
        {
            "constant": true,
            "inputs": [
                {
                    "internalType": "address",
                    "name": "owner",
                    "type": "address"
                }
            ],
            "name": "balanceOf",
            "outputs": [
                {
                    "internalType": "uint256",
                    "name": "balance",
                    "type": "uint256"
                }
            ],
            "payable": false,
            "stateMutability": "view",
            "type": "function"
        },
        {
            "constant": false,
            "inputs": [
                {
                    "internalType": "uint256",
                    "name": "_dadId",
                    "type": "uint256"
                },
                {
                    "internalType": "uint256",
                    "name": "_mumId",
                    "type": "uint256"
                }
            ],
            "name": "breed",
            "outputs": [
                {
                    "internalType": "uint256",
                    "name": "",
                    "type": "uint256"
                }
            ],
            "payable": false,
            "stateMutability": "nonpayable",
            "type": "function"
        },
        {
            "constant": false,
            "inputs": [
                {
                    "internalType": "uint256",
                    "name": "_genes",
                    "type": "uint256"
                }
            ],
            "name": "createKittyGen0",
            "outputs": [
                {
                    "internalType": "uint256",
                    "name": "",
                    "type": "uint256"
                }
            ],
            "payable": false,
            "stateMutability": "nonpayable",
            "type": "function"
        },
        {
            "constant": true,
            "inputs": [],
            "name": "gen0Counter",
            "outputs": [
                {
                    "internalType": "uint256",
                    "name": "",
                    "type": "uint256"
                }
            ],
            "payable": false,
            "stateMutability": "view",
            "type": "function"
        },
        {
            "constant": true,
            "inputs": [
                {
                    "internalType": "uint256",
                    "name": "tokenId",
                    "type": "uint256"
                }
            ],
            "name": "getApproved",
            "outputs": [
                {
                    "internalType": "address",
                    "name": "",
                    "type": "address"
                }
            ],
            "payable": false,
            "stateMutability": "view",
            "type": "function"
        },
        {
            "constant": true,
            "inputs": [
                {
                    "internalType": "uint256",
                    "name": "_id",
                    "type": "uint256"
                }
            ],
            "name": "getKitty",
            "outputs": [
                {
                    "internalType": "uint256",
                    "name": "genes",
                    "type": "uint256"
                },
                {
                    "internalType": "uint256",
                    "name": "birthTime",
                    "type": "uint256"
                },
                {
                    "internalType": "uint256",
                    "name": "mumId",
                    "type": "uint256"
                },
                {
                    "internalType": "uint256",
                    "name": "dadId",
                    "type": "uint256"
                },
                {
                    "internalType": "uint256",
                    "name": "generation",
                    "type": "uint256"
                }
            ],
            "payable": false,
            "stateMutability": "view",
            "type": "function"
        },
        {
            "constant": true,
            "inputs": [
                {
                    "internalType": "address",
                    "name": "_owner",
                    "type": "address"
                }
            ],
            "name": "getKittyByOwner",
            "outputs": [
                {
                    "internalType": "uint256[]",
                    "name": "",
                    "type": "uint256[]"
                }
            ],
            "payable": false,
            "stateMutability": "view",
            "type": "function"
        },
        {
            "constant": true,
            "inputs": [
                {
                    "internalType": "address",
                    "name": "owner",
                    "type": "address"
                },
                {
                    "internalType": "address",
                    "name": "operator",
                    "type": "address"
                }
            ],
            "name": "isApprovedForAll",
            "outputs": [
                {
                    "internalType": "bool",
                    "name": "",
                    "type": "bool"
                }
            ],
            "payable": false,
            "stateMutability": "view",
            "type": "function"
        },
        {
            "constant": true,
            "inputs": [
                {
                    "internalType": "uint256",
                    "name": "",
                    "type": "uint256"
                }
            ],
            "name": "kittyIndexToApproved",
            "outputs": [
                {
                    "internalType": "address",
                    "name": "",
                    "type": "address"
                }
            ],
            "payable": false,
            "stateMutability": "view",
            "type": "function"
        },
        {
            "constant": true,
            "inputs": [
                {
                    "internalType": "uint256",
                    "name": "",
                    "type": "uint256"
                }
            ],
            "name": "kittyIndexToOwner",
            "outputs": [
                {
                    "internalType": "address",
                    "name": "",
                    "type": "address"
                }
            ],
            "payable": false,
            "stateMutability": "view",
            "type": "function"
        },
        {
            "constant": true,
            "inputs": [],
            "name": "name",
            "outputs": [
                {
                    "internalType": "string",
                    "name": "",
                    "type": "string"
                }
            ],
            "payable": false,
            "stateMutability": "view",
            "type": "function"
        },
        {
            "constant": true,
            "inputs": [
                {
                    "internalType": "uint256",
                    "name": "_tokenId",
                    "type": "uint256"
                }
            ],
            "name": "ownerOf",
            "outputs": [
                {
                    "internalType": "address",
                    "name": "owner",
                    "type": "address"
                }
            ],
            "payable": false,
            "stateMutability": "view",
            "type": "function"
        },
        {
            "constant": false,
            "inputs": [
                {
                    "internalType": "address",
                    "name": "_from",
                    "type": "address"
                },
                {
                    "internalType": "address",
                    "name": "_to",
                    "type": "address"
                },
                {
                    "internalType": "uint256",
                    "name": "_tokenId",
                    "type": "uint256"
                }
            ],
            "name": "safeTransferFrom",
            "outputs": [],
            "payable": false,
            "stateMutability": "nonpayable",
            "type": "function"
        },
        {
            "constant": false,
            "inputs": [
                {
                    "internalType": "address",
                    "name": "_from",
                    "type": "address"
                },
                {
                    "internalType": "address",
                    "name": "_to",
                    "type": "address"
                },
                {
                    "internalType": "uint256",
                    "name": "_tokenId",
                    "type": "uint256"
                },
                {
                    "internalType": "bytes",
                    "name": "_data",
                    "type": "bytes"
                }
            ],
            "name": "safeTransferFrom",
            "outputs": [],
            "payable": false,
            "stateMutability": "nonpayable",
            "type": "function"
        },
        {
            "constant": false,
            "inputs": [
                {
                    "internalType": "address",
                    "name": "operator",
                    "type": "address"
                },
                {
                    "internalType": "bool",
                    "name": "approved",
                    "type": "bool"
                }
            ],
            "name": "setApprovalForAll",
            "outputs": [],
            "payable": false,
            "stateMutability": "nonpayable",
            "type": "function"
        },
        {
            "constant": true,
            "inputs": [
                {
                    "internalType": "bytes4",
                    "name": "_interfaceId",
                    "type": "bytes4"
                }
            ],
            "name": "supportsInterface",
            "outputs": [
                {
                    "internalType": "bool",
                    "name": "",
                    "type": "bool"
                }
            ],
            "payable": false,
            "stateMutability": "pure",
            "type": "function"
        },
        {
            "constant": true,
            "inputs": [],
            "name": "symbol",
            "outputs": [
                {
                    "internalType": "string",
                    "name": "",
                    "type": "string"
                }
            ],
            "payable": false,
            "stateMutability": "view",
            "type": "function"
        },
        {
            "constant": true,
            "inputs": [],
            "name": "totalSupply",
            "outputs": [
                {
                    "internalType": "uint256",
                    "name": "total",
                    "type": "uint256"
                }
            ],
            "payable": false,
            "stateMutability": "view",
            "type": "function"
        },
        {
            "constant": false,
            "inputs": [
                {
                    "internalType": "address",
                    "name": "_to",
                    "type": "address"
                },
                {
                    "internalType": "uint256",
                    "name": "_tokenId",
                    "type": "uint256"
                }
            ],
            "name": "transfer",
            "outputs": [],
            "payable": false,
            "stateMutability": "nonpayable",
            "type": "function"
        },
        {
            "constant": false,
            "inputs": [
                {
                    "internalType": "address",
                    "name": "_from",
                    "type": "address"
                },
                {
                    "internalType": "address",
                    "name": "_to",
                    "type": "address"
                },
                {
                    "internalType": "uint256",
                    "name": "_tokenId",
                    "type": "uint256"
                }
            ],
            "name": "transferFrom",
            "outputs": [],
            "payable": false,
            "stateMutability": "nonpayable",
            "type": "function"
        }
    ],
    "bytecode": "6080604052600080546001600160a01b03191633179055611125806100256000396000f3fe608060405234801561001057600080fd5b506004361061014d5760003560e01c806395d89b41116100c3578063b88d4fde1161007c578063b88d4fde14610477578063d5a776ca1461053d578063d9ecad7b1461055a578063e985e9c51461057d578063e98b7f4d146105ab578063ef5e94aa146105f35761014d565b806395d89b411461037a57806395e6c62f14610382578063a22cb465146103f8578063a45f4bfc14610426578063a9059cbb14610443578063b48343301461046f5761014d565b806323b872dd1161011557806323b872dd1461028b57806342842e0e146102c1578063481af3d3146102f75780636352211e1461031457806370a0823114610331578063959bb970146103575761014d565b806301ffc9a71461015257806306fdde031461018d578063081812fc1461020a578063095ea7b31461024357806318160ddd14610271575b600080fd5b6101796004803603602081101561016857600080fd5b50356001600160e01b0319166105fb565b604080519115158252519081900360200190f35b610195610632565b6040805160208082528351818301528351919283929083019185019080838360005b838110156101cf5781810151838201526020016101b7565b50505050905090810190601f1680156101fc5780820380516001836020036101000a031916815260200191505b509250505060405180910390f35b6102276004803603602081101561022057600080fd5b503561065b565b604080516001600160a01b039092168252519081900360200190f35b61026f6004803603604081101561025957600080fd5b506001600160a01b038135169060200135610688565b005b6102796106e1565b60408051918252519081900360200190f35b61026f600480360360608110156102a157600080fd5b506001600160a01b038135811691602081013590911690604001356106e7565b61026f600480360360608110156102d757600080fd5b506001600160a01b03813581169160208101359091169060400135610760565b6102276004803603602081101561030d57600080fd5b503561077b565b6102276004803603602081101561032a57600080fd5b5035610796565b6102796004803603602081101561034757600080fd5b50356001600160a01b03166107b1565b6102796004803603604081101561036d57600080fd5b50803590602001356107cc565b6101956107de565b6103a86004803603602081101561039857600080fd5b50356001600160a01b03166107fc565b60408051602080825283518183015283519192839290830191858101910280838360005b838110156103e45781810151838201526020016103cc565b505050509050019250505060405180910390f35b61026f6004803603604081101561040e57600080fd5b506001600160a01b03813516906020013515156108b1565b6102276004803603602081101561043c57600080fd5b5035610935565b61026f6004803603604081101561045957600080fd5b506001600160a01b038135169060200135610950565b61027961099b565b61026f6004803603608081101561048d57600080fd5b6001600160a01b038235811692602081013590911691604082013591908101906080810160608201356401000000008111156104c857600080fd5b8201836020820111156104da57600080fd5b803590602001918460018302840111640100000000831117156104fc57600080fd5b91908080601f0160208091040260200160405190810160405280939291908181526020018383808284376000920191909152509295506109a0945050505050565b6102796004803603602081101561055357600080fd5b50356109c7565b6102796004803603604081101561057057600080fd5b5080359060200135610a05565b6101796004803603604081101561059357600080fd5b506001600160a01b0381358116916020013516610b41565b6105c8600480360360208110156105c157600080fd5b5035610b6f565b6040805195865260208601949094528484019290925260608401526080830152519081900360a00190f35b610279610bd9565b60006001600160e01b031982166380ac58cd60e01b148061062c57506001600160e01b031982166301ffc9a760e01b145b92915050565b6040518060400160405280600d81526020016c416d6974795f6b69747469657360981b81525081565b600154600090821061066c57600080fd5b506000908152600460205260409020546001600160a01b031690565b6106923382610bdf565b61069b57600080fd5b6106a58183610bff565b60405181906001600160a01b0384169033907f8c5be1e5ebec7d5bd14f71427d1e84f3dd0314c0f7b2291e5b200ac8c7c3b92590600090a45050565b60015490565b6001600160a01b0382166106fa57600080fd5b336001600160a01b038416148061071657506107163382610c2d565b8061072657506107268333610b41565b61072f57600080fd5b6107398382610bdf565b61074257600080fd5b600154811061075057600080fd5b61075b838383610c4d565b505050565b61075b838383604051806020016040528060008152506109a0565b6004602052600090815260409020546001600160a01b031681565b6000908152600260205260409020546001600160a01b031690565b6001600160a01b031660009081526003602052604090205490565b6305f5e1009182900482029190060190565b60405180604001604052806002815260200161414b60f01b81525081565b60608060036000846001600160a01b03166001600160a01b031681526020019081526020016000205460405190808252806020026020018201604052801561084e578160200160208202803883390190505b5090506000805b6001548110156108a8576000818152600260205260409020546001600160a01b03868116911614156108a0578083838151811061088e57fe5b60209081029190910101526001909101905b600101610855565b50909392505050565b6001600160a01b0382163314156108c757600080fd5b3360008181526005602090815260408083206001600160a01b03871680855290835292819020805460ff1916861515908117909155815190815290519293927f17307eab39ab6107e8899845ad3d59bd9653f200f220920489ca2b5937696c31929181900390910190a35050565b6002602052600090815260409020546001600160a01b031681565b6001600160a01b03821661096357600080fd5b6001600160a01b03821630141561097957600080fd5b6109833382610bdf565b61098c57600080fd5b610997338383610c4d565b5050565b600a81565b6109ac33858585610d14565b6109b557600080fd5b6109c184848484610d8b565b50505050565b600080546001600160a01b031633146109df57600080fd5b600a600654106109ee57600080fd5b60068054600101905561062c600080808533610dab565b6000610a113384610bdf565b610a62576040805162461bcd60e51b815260206004820181905260248201527f546865205573657220646f6573206e6f74206f776e207468697320746f6b656e604482015290519081900360640190fd5b610a6c3383610bdf565b610abd576040805162461bcd60e51b815260206004820152601e60248201527f546865207573657220646f65736e2774206f776e2074686520746f6b656e0000604482015290519081900360640190fd5b600080610ac985610b6f565b94505050509150600080610adc86610b6f565b945050505091506000610aef85846107cc565b9050600082851015610b0c5750600182016002815b049050610b27565b82851115610b21575060018401600281610b04565b50600182015b610b34888a838533610dab565b5050505050505092915050565b6001600160a01b03918216600090815260056020908152604080832093909416825291909152205460ff1690565b60008060008060008060018781548110610b8557fe5b60009182526020909120600290910201600181015490549867ffffffffffffffff82169850600160401b820463ffffffff9081169850600160601b8304169650600160801b90910461ffff16945092505050565b60065481565b6000908152600260205260409020546001600160a01b0391821691161490565b60009182526004602052604090912080546001600160a01b0319166001600160a01b03909216919091179055565b6000908152600460205260409020546001600160a01b0391821691161490565b6001600160a01b038083166000818152600360209081526040808320805460010190558583526002909152902080546001600160a01b0319169091179055831615610cce576001600160a01b038316600090815260036020908152604080832080546000190190558383526004909152902080546001600160a01b03191690555b80826001600160a01b0316846001600160a01b03167fddf252ad1be2c89b69c2b068fc378daa952ba7f163c4a11628f55a4df523b3ef60405160405180910390a4505050565b6001546000908210610d2557600080fd5b6001600160a01b038316610d3857600080fd5b610d428483610bdf565b610d4b57600080fd5b836001600160a01b0316856001600160a01b03161480610d705750610d708583610c2d565b80610d805750610d808486610b41565b90505b949350505050565b610d96848484610c4d565b610da284848484610f3f565b6109c157600080fd5b6000610db5611093565b506040805160a0808201835285825267ffffffffffffffff428116602080850191825263ffffffff808d168688019081528c8216606080890191825261ffff808f166080808c019182526001805480820182556000919091528c51600282027fb10e2d527612073b26eecdfd717e6a320cf44b4afac2b0732d9fcbe2b7fa0cf681019190915599517fb10e2d527612073b26eecdfd717e6a320cf44b4afac2b0732d9fcbe2b7fa0cf7909a018054975196519351909416600160801b0261ffff60801b19938916600160601b0263ffffffff60601b1997909916600160401b026bffffffff0000000000000000199b909c1667ffffffffffffffff199098169790971799909916999099179390931694909417919091169190911790915586516001600160a01b038a1681529182018390528187018d905281018b905291820188905293519293927f0a5311bd2a6608f08a180df2ee7c5946819a649b204b554bb8e39825b2c50ad5929181900390910190a1610f3460008583610c4d565b979650505050505050565b6000610f4a84611087565b610f5657506001610d83565b604051630a85bd0160e11b815233600482018181526001600160a01b03888116602485015260448401879052608060648501908152865160848601528651600095928a169463150b7a029490938c938b938b939260a4019060208501908083838e5b83811015610fd0578181015183820152602001610fb8565b50505050905090810190601f168015610ffd5780820380516001836020036101000a031916815260200191505b5095505050505050602060405180830381600087803b15801561101f57600080fd5b505af1158015611033573d6000803e3d6000fd5b505050506040513d602081101561104957600080fd5b505160405190915080602f6110c28239602f01905060405180910390206001600160e01b031916816001600160e01b03191614915050949350505050565b3b63ffffffff16151590565b6040805160a0810182526000808252602082018190529181018290526060810182905260808101919091529056fe6f6e455243373231526563656976656428616464726573732c616464726573732c75696e743235362c627974657329a265627a7a723158209a292449f2e20dd2b995b51f193a99316c80263a62b0d94f851d5c234d3ad4f564736f6c634300050c0032",
    "sourcePath": "c:/Users/aayum_vuuxn0b/OneDrive/Documents/Kitties-boilerplate/contracts/KittyContracts.sol",
    "compiler": {
        "name": "solc",
        "version": "0.5.12+commit.7709ece9"
    },
    "functionHashes": {
        "CREATION_LIMIT_GEN0()": "b4834330",
        "_mixDna(uint256,uint256)": "959bb970",
        "approve(address,uint256)": "095ea7b3",
        "balanceOf(address)": "70a08231",
        "breed(uint256,uint256)": "d9ecad7b",
        "createKittyGen0(uint256)": "d5a776ca",
        "gen0Counter()": "ef5e94aa",
        "getApproved(uint256)": "081812fc",
        "getKitty(uint256)": "e98b7f4d",
        "getKittyByOwner(address)": "95e6c62f",
        "isApprovedForAll(address,address)": "e985e9c5",
        "kittyIndexToApproved(uint256)": "481af3d3",
        "kittyIndexToOwner(uint256)": "a45f4bfc",
        "name()": "06fdde03",
        "ownerOf(uint256)": "6352211e",
        "safeTransferFrom(address,address,uint256)": "42842e0e",
        "safeTransferFrom(address,address,uint256,bytes)": "b88d4fde",
        "setApprovalForAll(address,bool)": "a22cb465",
        "supportsInterface(bytes4)": "01ffc9a7",
        "symbol()": "95d89b41",
        "totalSupply()": "18160ddd",
        "transfer(address,uint256)": "a9059cbb",
        "transferFrom(address,address,uint256)": "23b872dd"
    },
    "gasEstimates": {
        "creation": {
            "codeDepositCost": "877800",
            "executionCost": "21127",
            "totalCost": "898927"
        },
        "external": {
            "CREATION_LIMIT_GEN0()": "331",
            "_mixDna(uint256,uint256)": "424",
            "approve(address,uint256)": "22954",
            "balanceOf(address)": "653",
            "breed(uint256,uint256)": "infinite",
            "createKittyGen0(uint256)": "126901",
            "gen0Counter()": "530",
            "getApproved(uint256)": "844",
            "getKitty(uint256)": "1271",
            "getKittyByOwner(address)": "infinite",
            "isApprovedForAll(address,address)": "750",
            "kittyIndexToApproved(uint256)": "612",
            "kittyIndexToOwner(uint256)": "634",
            "name()": "infinite",
            "ownerOf(uint256)": "634",
            "safeTransferFrom(address,address,uint256)": "infinite",
            "safeTransferFrom(address,address,uint256,bytes)": "infinite",
            "setApprovalForAll(address,bool)": "22567",
            "supportsInterface(bytes4)": "389",
            "symbol()": "infinite",
            "totalSupply()": "510",
            "transfer(address,uint256)": "83991",
            "transferFrom(address,address,uint256)": "84936"
        },
        "internal": {
            "_approve(uint256,address)": "20350",
            "_approvedFor(address,uint256)": "320",
            "_checkERC721Support(address,address,uint256,bytes memory)": "infinite",
            "_createKitty(uint256,uint256,uint256,uint256,address)": "infinite",
            "_isApprovedOrOwner(address,address,address,uint256)": "1477",
            "_isContract(address)": "724",
            "_owns(address,uint256)": "320",
            "_safeTransfer(address,address,uint256,bytes memory)": "infinite",
            "_transfer(address,address,uint256)": "83217"
        }
    }
}